:0400000007EF00F016
:100008005882C8ED03F031EF04F0010E3D6E355013
:100018003610D8B412EF00F014EF00F025EF00F01E
:1000280035C0D9FF36C0DAFFDF30E832E832070BD7
:10003800376E070E376423EF00F025EF00F088EFE6
:1000480000F0000E3D6EA9EF00F035C0D9FF36C0B4
:10005800DAFFDF30E832E832070B376E010E386E10
:10006800372A39EF00F0D8903836372E37EF00F0BE
:100078003850FF0A396E35C0D9FF36C0DAFFDF5075
:10008800070B3A6E3A50020D150EF324D96E000E86
:10009800F420DA6EDECF3BF0DDCF3CF03BC0D9FF79
:1000A8003CC0DAFF3950DF16A9EF00F035C0D9FFA0
:1000B80036C0DAFFDF30E832E832070B376E010E60
:1000C800386E372A6AEF00F0D8903836372E68EF46
:1000D80000F035C0D9FF36C0DAFFDF50070B396EA4
:1000E8003950020D150EF324D96E000EF420DA6E85
:1000F800DECF3AF0DDCF3BF03AC0D9FF3BC0DAFFA4
:100108003850DF12A9EF00F035C0D9FF36C0DAFF4A
:10011800DFBC91EF00F094EF00F0010E95EF00F0D6
:10012800000E376E386A3850000AD8B49EEF00F0D7
:1001380025EF00F03750000AD8B429EF00F0010A83
:10014800D8B45AEF00F025EF00F03D501200320EFF
:10015800436E000E446E30EC03F0310E436E000E19
:10016800446E30EC03F0300E436E000E446E30ECFB
:1001780003F02B0E376E000E386ED8EC01F0260E09
:10018800436E000E446E9AEC03F0320E3F6E000E82
:10019800406EBAEC02F0310E3F6E000E406EF5EC88
:1001A80002F0300E3F6E000E406EF5EC02F00F0EBE
:1001B800C112260E3F6E000E406E1FC041F034EC97
:1001C80002F0090E5318D8A4ECEF00F0EEEF00F09F
:1001D80002EF01F0320E3F6E000E406EF5EC02F0B9
:1001E800300E3F6E000E406EF5EC02F0310E3F6EA1
:1001F800000E406EBAEC02F0050E1F6E0E0E53187C
:10020800D8A409EF01F00BEF01F01FEF01F0320E57
:100218003F6E000E406EF5EC02F0300E3F6E000EA1
:10022800406EBAEC02F0310E3F6E000E406EF5ECF7
:1002380002F0070E1F6E150E5318D8A426EF01F012
:1002480028EF01F0DDEF00F0320E3F6E000E406E39
:10025800BAEC02F0300E3F6E000E406EF5EC02F084
:10026800310E3F6E000E406EF5EC02F0090E1F6E67
:10027800000E536EDDEF00F007EF00F0010E3E6E4A
:1002880035503610D8B44BEF01F04DEF01F05EEF6A
:1002980001F035C0D9FF36C0DAFFDF30E832E83286
:1002A800070B386E070E38645CEF01F05EEF01F063
:1002B800C1EF01F0000E3E6EC1EF01F035C0D9FF6D
:1002C80036C0DAFFDF30E832E832070B386E010E4D
:1002D800396E382A72EF01F0D8903936382E70EF1F
:1002E80001F03950FF0A3A6E35C0D9FF36C0DAFF3F
:1002F800DF50070B3B6E3B50020D0B0EF324D96EFB
:10030800000EF420DA6EDECF3CF0DDCF3DF03CC0CD
:10031800D9FF3DC0DAFF3A50DF16D6EF01F035C0FD
:10032800D9FF36C0DAFFDF30E832E832070B386E23
:10033800010E396E382AA3EF01F0D8903936382EDD
:10034800A1EF01F035C0D9FF36C0DAFFDF50070B47
:100358003A6E3A50020D0B0EF324D96E000EF420BB
:10036800DA6EDECF3BF0DDCF3CF03BC0D9FF3CC0BE
:10037800DAFF3950DF12D6EF01F03750386E396A9C
:100388003950000AD8B4CBEF01F0D6EF01F038505D
:10039800000AD8B462EF01F0010AD8B493EF01F073
:1003A800D6EF01F03E50120037503810D8A4DFEFD6
:1003B80001F0E1EF01F0E3EF01F033EF02F0CD904F
:1003C80020EE04F03750D9263850DA22DF50030BDC
:1003D800396E393ACD503918CF0B3918CD6E37C030
:1003E80035F038C036F07BEC02F037C035F038C055
:1003F80036F012EC04F037C035F038C036F0F3ECC4
:1004080003F020EE02F03750D9263850DA22DECF3A
:1004180039F0DDCF3AF03AC039F03A6A3950CF6E48
:1004280020EE02F03750D9263850DA22DF50CE6E4F
:1004380020EE02F03750D9263850DA22DECF49F0C4
:10044800DDCF4AF09D809E90F28EF28C37C0D9FFA6
:1004580038C0DAFFDECF4BF0DDCF4CF0CD80120094
:100468003F504010D8B43BEF02F03DEF02F045EFAB
:1004780002F0090E416443EF02F045EF02F047EF46
:1004880002F07AEF02F03FC035F040C036F041503C
:10049800010B376E42EC01F0426E010E3F24356EBF
:1004A800000E4020366ED8904130010B376E42EC7A
:1004B80001F0426E020E3F24356E000E4020366E6B
:1004C8004140E8423F0B010B376E42EC01F0426EAF
:1004D800030E3F24356E000E4020366E4138E84644
:1004E8001F0B010B376E42EC01F0426E120020EE3A
:1004F80004F03550D9263650DA22DFB486EF02F000
:1005080088EF02F08BEF02F0CD92B9EF02F020EE07
:1005180004F03550D9263650DA22DFA496EF02F0DF
:1005280098EF02F0B9EF02F0CD8220EE04F03550DA
:10053800D9263650DA22DFB6A4EF02F0A6EF02F091
:10054800A9EF02F0CD94B9EF02F020EE04F0355097
:10055800D9263650DA22DFA6B4EF02F0B6EF02F061
:10056800B9EF02F0CD84B9EF02F012003F5040100D
:10057800D8A4C1EF02F0C3EF02F0C5EF02F0F4EF28
:1005880002F056C042F03FC0D9FF40C0DAFFDF504A
:100598000F0B416E42504118F80B4118426E3FC094
:1005A800D9FF40C0DAFFDF38070B416E41464146AC
:1005B800414642504118C70B4118426E429C3FC009
:1005C800D9FF40C0DAFFDFAE02D0428E01D0429E92
:1005D800420E356E000E366E010E376E42EC01F09B
:1005E80012003F504010D8A4FCEF02F0FEEF02F0DA
:1005F80000EF03F02FEF03F055C042F03FC0D9FFE2
:1006080040C0DAFFDF500F0B416E42504118F80B23
:100618004118426E3FC0D9FF40C0DAFFDF38070BF0
:10062800416E41464146414642504118C70B411868
:10063800426E429C3FC0D9FF40C0DAFFDFAE02D015
:10064800428E01D0429E420E356E000E366E000E6E
:10065800376E42EC01F0120043504410D8A437EF33
:1006680003F039EF03F03BEF03F068EF03F057C0F6
:1006780046F043C0D9FF44C0DAFFDF500F0B456E88
:1006880046504518F80B4518466E43C0D9FF44C07C
:10069800DAFFDF38070B456E454645464546465066
:1006A8004518C70B4518466E469C43C0D9FF44C041
:1006B800DAFFDFAE02D0468E01D0469E460E3F6E70
:1006C800000E406E69EC03F012003F504010D8B4A1
:1006D80070EF03F072EF03F083EF03F03FC0D9FF30
:1006E80040C0DAFFDF30E832E832070B416E070E10
:1006F800416481EF03F083EF03F083EF03F03FC021
:1007080035F040C036F009EC00F03FC035F040C08D
:1007180036F03FC0D9FF40C0DAFF000EDFBE010E41
:10072800376E42EC01F0426E4250120043504410C2
:10073800D8A4A1EF03F0A3EF03F0A5EF03F0C7EFF0
:1007480003F043C03FF044C040F069EC03F0456E4D
:10075800010E43243F6E000E4420406E69EC03F006
:10076800456E020E43243F6E000E4420406E69EC35
:1007780003F0456E030E43243F6E000E4420406E86
:1007880069EC03F0456E12000600FACF33F0FBCF98
:1007980034F0F2AAD2EF03F0D4EF03F0DDEF03F068
:1007A800F2A4D9EF03F0DBEF03F0DDEF03F06AEC1E
:1007B80004F09DA0E2EF03F0E4EF03F0EDEF03F0A7
:1007C8009EA0E9EF03F0EBEF03F0EDEF03F04EEC42
:1007D80004F034C0FBFF33C0FAFF5892110020EE3A
:1007E80004F03550D9263650DA22DFBAFEEF03F08E
:1007F80000EF04F003EF04F0CD9E11EF04F020EEBB
:1008080004F03550D9263650DA22DFAA0EEF04F06C
:1008180010EF04F011EF04F0CD8E120020EE04F07A
:100828003550D9263650DA22DFA81DEF04F01FEF25
:1008380004F022EF04F0CD8630EF04F020EE04F04F
:100848003550D9263650DA22DFB82DEF04F02FEFD5
:1008580004F030EF04F0CD9612000C0EF66E090E7F
:10086800F76E000EF86E00EE01F010EE32F009009F
:10087800F5CFEEFFE550E150FAE100EE47F0110E3A
:10088800EE6AE806FDE158905892000EF86E0001F5
:10089800ABEF00F09E904A50CF6E49C0CEFF4B5050
:1008A8004C10D8B45AEF04F05CEF04F069EF04F090
:1008B80002D869EF04F00500FA6E4B50FD6E4C50FB
:1008C800FE6EF850FF6EFA5012001200F2944E506D
:1008D800D76E4DC0D6FF4F505010D8B476EF04F005
:1008E80078EF04F085EF04F002D885EF04F00500F6
:1008F800FA6E4F50FD6E5050FE6EF850FF6EFA5073
:1009080012001200800F810F820F830F840F890F4E
:100918008A0F8B0F8C0F8D0F920F930F940F950FDB
:10092800960F096409009CFF0A01091119003E0984
:10093800E0B120231303474A482A640E4718481099
:10094800D8A4A9EF04F0ABEF04F0B1EF04F01F0650
:10095800532A000E486E000E476E1200514A522A62
:0209680012007B
:020000040020DA
:08000000FFFFFFFFFFFFFFFF00
:020000040030CA
:0E000000FF020912FF8181FF0FC00FE00F40C9
:00000001FF
